:0C0000000C9439000C9400000C940000DB
:10000C000C9400000C9400000C9400000C94000064
:10001C000C9400000C9400000C9400000C94000054
:10002C000C9400000C9400000C9400000C94000044
:10003C000C9400000C9400000C9400000C94000034
:10004C000C9400000C94000041546D6567613332D0
:10005C00204C43440048656C6C6F000080C002006B
:10006C00600268000000F894EE27ECBBF1E0FBBFE7
:10007C00EBBFE5BF8DE0A2E0BB27ED938A95E9F7D6
:10008C0080E098E0A0E6ED930197E9F7EAE6F0E06E
:10009C0085919591009761F0A591B591059015907A
:1000AC00BF01F00105900D920197E1F7FB01F0CF34
:1000BC00EFE5EDBFE8E0EEBFC0E6D2E00C946600E1
:1000CC00639783E1A0E0B0E0E4E5F0E00E942F014B
:1000DC00E5EFE4BBE0E0E5BBA0E172D053D0E0E09B
:1000EC00EA93A0E042D000E010E0DE011D96A00FE4
:1000FC00B11FEC91E03031F0DE011D968CD00F5F1A
:10010C001F4FF3CFE0E0EA93A1E02FD000E010E026
:10011C00DE01A00FB11FEC91E03029F0DE017BD0A5
:10012C000F5F1F4FF5CFFFCFFFCFAA93E5B3EF7053
:10013C00AE2FE881E07FEA2BE5BB8DE08A95F1F7E5
:10014C00AA9A8DE08A95F1F7AA988DE08A95F1F735
:10015C0060C0AA93A881E9DFE881E295E883A881D1
:10016C00E4DF85E88A95F1F754C0AA93E881F0E0C2
:10017C00E05AFD4FE081A981AE0FEBDF598048803A
:10018C0022960895A2E04FD0ACE0E3DFA1E04BD083
:10019C00E0E04E2E5E2E0895AA93A881AA3011F0AD
:1001AC00571440F0E0E0EA934394A42DDEDFA881DD
:1001BC00AA3079F15394A89AA881CBDFA89829C0CA
:1001CC00AA93E4B3E06FE4BBA29AA09AA19AAA986E
:1001DC00A898A9987880E881E058E0936202E881B9
:1001EC00E054E0936302A4E1B0E00E94250120D02A
:1001FC001FD01ED0A0E299DF88EC90E00197F1F7B8
:10020C00A8E2A7DFA4E0A5DFA5E8A3DFA6E0A1DFB5
:10021C00B9DF21960895A00FB11FAC91BDDFA8EEF8
:10022C00B3E00C94250195DFA3E0B0E00C9425011C
:10023C00A0E37BDF88EC90E00197F1F7089510962E
:10024C0039F080ED97E00197F1F7A8951197C9F770
:10025C000895AC0FBD1F05900D928A95E1F7089596
:00000001FF
